:020000040800F2
:100000000050002079160008C9160008C91600081B
:10001000C9160008C9160008C9160008000000002B
:10002000000000000000000000000000410D00087A
:10003000C916000800000000410E0008890E0008E3
:10004000FD2E0008C9160008C9160008C9160008C8
:10005000C9160008C9160008051700082917000866
:100060004D1700087117000895170008C9160008F9
:10007000C9160008C9160008C9160008C9160008E4
:10008000C9160008C9160008CD160008C9160008D0
:10009000C9160008C9160008C9160008B9170008D3
:1000A000C9160008C9160008C9160008C9160008B4
:1000B0000D2B0008292B0008452B000839220008C9
:1000C0001D2300082923000835230008F923000810
:1000D00055240008912E0008B52E0008D92E0008DE
:1000E00061180008C916000800000000C9160008C1
:1000F000C9160008C9160008C9160008C916000864
:10010000C9160008C9160008C9160008C916000853
:10011000C9160008C9160008C9160008C916000843
:10012000C9160008C9160008C9160008C916000833
:1001300010B5054C237833B9044B13B10448AFF321
:1001400000800123237010BD0C000020000000007F
:10015000782F000808B5034B1BB103490348AFF3E0
:10016000008008BD0000000010000020782F00086B
:1001700080B483B000AF78607B6803F108027B68CD
:100180005A607B684FF0FF329A607B6803F1080287
:100190007B68DA607B6803F108027B681A617B6820
:1001A00000221A6000BF0C37BD4680BC704780B487
:1001B00083B000AF78607B6800221A6100BF0C3703
:1001C000BD4680BC704780B485B000AF78603960B0
:1001D0003B681B68BB60BB68B3F1FF3F03D17B6822
:1001E0001B69FB600CE07B680833FB6002E0FB6886
:1001F0005B68FB60FB685B681B68BA689A42F6D272
:10020000FB685A683B685A603B685B683A689A606A
:100210003B68FA689A60FB683A685A603B687A689B
:100220001A617B681B685A1C7B681A6000BF143710
:10023000BD4680BC704780B485B000AF78607B68F5
:100240001B69FB607B685B687A6892689A607B6870
:100250009B687A6852685A60FB685B687A689A4261
:1002600003D17B689A68FB685A607B6800221A6138
:10027000FB681B685A1EFB681A60FB681B681846FF
:100280001437BD4680BC704780B58CB004AFF860B1
:10029000B9603B601346FB80FB889B00184600F06A
:1002A0002FFE78617B69002B13D0542000F028FECC
:1002B000F861FB69002B08D054220021F86902F094
:1002C0002FFEFB697A691A6305E0786900F06AFE1F
:1002D00001E00023FB61FB69002B13D0FA880023A7
:1002E0000393FB690293FB6A0193BB6A00933B682B
:1002F000B968F86800F00EF8F86900F073F80123A7
:10030000BB6102E04FF0FF33BB61BB691846203789
:10031000BD4680BD80B586B000AFF860B9607A6038
:100320003B60BB6A1A6B7B6803F18043013B9B0017
:1003300013443B613B6923F007033B61BB68002B1F
:100340001ED000237B6112E0BA687B6913441978E0
:10035000BA6A7B69134434330A461A70BA687B69F7
:1003600013441B78002B06D07B6901337B617B69CA
:100370000F2BE9D900E000BFBB6A002283F84320BD
:100380003B6A042B01D904233B62BB6A3A6ADA62F6
:10039000BB6A3A6A5A64BB6A04331846FFF707FF20
:1003A000BB6A18331846FFF702FFBB6ABA6A1A61C4
:1003B0003B6AC3F10502BB6A9A61BB6ABA6A5A62B8
:1003C0003A68F968386900F075FC0246BB6A1A6041
:1003D0007B6A002B02D07B6ABA6A1A6000BF1837AA
:1003E000BD4680BD80B584B000AF786000F0EEFC03
:1003F0003E4B1B6801333D4A13603D4B1B68002B8D
:1004000009D13B4A7B681360384B1B68012B10D124
:1004100000F038FB0DE0374B1B68002B09D1344B43
:100420001B68DA6A7B68DB6A9A4202D8304A7B68CA
:100430001360314B1B6801332F4A13607B68DB6A02
:1004400001229A402D4B1B6813432C4A13607B6892
:10045000DA6A2B4913469B0013449B000B44043378
:100460001B68FB607B68FA689A60FB689A687B6827
:10047000DA60FB689B687A6804325A607B681A1DF0
:10048000FB689A607B68DA6A13469B0013449B0002
:100490001B4A1A447B685A617B68DA6A184913461A
:1004A0009B0013449B000B441B68591C14481346C3
:1004B0009B0013449B000344196000F0A1FC0D4B0A
:1004C0001B68002B0ED00A4B1B68DA6A7B68DB6A5C
:1004D0009A4207D20B4B4FF080521A60BFF34F8FF6
:1004E000BFF36F8F00BF1037BD4680BD00010020F5
:1004F000280000200C0100201C0100200801002021
:100500002C00002004ED00E080B584B000AF7860DE
:100510000023FB607B68002B08D000F055F8002119
:10052000786800F047FB00F05DF8F860FB68002B8E
:1005300007D1064B4FF080521A60BFF34F8FBFF3C5
:100540006F8F00BF1037BD4680BD00BF04ED00E0D7
:1005500080B584B002AF154B0193002300930023B4
:100560004FF4807212491348FFF78EFE78607B6863
:10057000012B15D14FF0BF0383F31188BFF36F8FA9
:10058000BFF34F8F3B6000BF0B4B4FF0FF321A6041
:100590000A4B01221A600A4B00221A6000F0F6FB97
:1005A000084B1B6800BF0837BD4680BD24010020F2
:1005B000902F0008550A0008200100200C0100209F
:1005C000040100200000002080B400AF044B1B6831
:1005D0000133034A136000BFBD4680BC704700BFB3
:1005E0002801002080B586B000AF00237B61002386
:1005F0003B6100F0EBFB684B1B68013B664A1360F4
:10060000654B1B68002B40F0C080644B1B68002BBF
:1006100000F0BB808AE0624BDB68DB687B617B6952
:100620009B6ABB607B69DB697A69126A9A607B6945
:100630001B6A7A69D2695A60BB685A687B69183349
:100640009A4203D17B691A6ABB685A607B690022AF
:100650009A62BB681B685A1EBB681A607B695B693B
:100660007B607B699B687A69D2689A607B69DB688A
:100670007A6992685A607B685A687B6904339A4247
:1006800003D17B69DA687B685A607B6900225A6112
:100690007B681B685A1E7B681A607B69DB6A0122D3
:1006A0009A40404B1B6813433E4A13607B69DA6AE9
:1006B0003D4913469B0013449B000B4404331B68C5
:1006C0003B607B693A689A603B689A687B69DA604C
:1006D0003B689B687A6904325A607B691A1D3B68E3
:1006E0009A607B69DA6A13469B0013449B002E4A8A
:1006F0001A447B695A617B69DA6A2B4913469B006D
:1007000013449B000B441B68591C274813469B004D
:1007100013449B00034419607B69DA6A234B1B680E
:10072000DB6A9A4202D3224B01221A601C4B1B68DF
:10073000002B7FF470AF7B69002B01D000F020FA12
:100740001C4B1B68FB60FB68002B10D000F036F8D8
:100750000346002B02D0164B01221A60FB68013BB6
:10076000FB60FB68002BF1D1124B00221A60104B8A
:100770001B68002B09D001233B610F4B4FF08052C7
:100780001A60BFF34F8FBFF36F8F00F039FB3B69E7
:1007900018461837BD4680BD280100200001002002
:1007A000C0000020080100202C00002028000020AC
:1007B000140100201001002004ED00E080B588B095
:1007C00000AF0023FB61754B1B68002B40F0DC8001
:1007D000734B1B680133BB61714ABB691360BB6912
:1007E000002B10D16F4B1B687B616F4B1B686D4AF0
:1007F00013606D4A7B6913606C4B1B6801336B4A55
:10080000136000F0BDF96A4B1B68BA699A42C0F0E8
:10081000A680644B1B681B68002B04D1644B4FF00F
:10082000FF321A609BE05F4B1B68DB68DB683B6153
:100830003B695B68FB60BA69FB689A4203D25C4A19
:10084000FB6813608BE03B695B69BB603B699B683D
:100850003A69D2689A603B69DB683A6992685A6083
:10086000BB685A683B6904339A4203D13B69DA6832
:10087000BB685A603B6900225A61BB681B685A1EFC
:10088000BB681A603B699B6A002B1ED03B699B6A60
:100890007B603B69DB693A69126A9A603B691B6A53
:1008A0003A69D2695A607B685A683B6918339A4240
:1008B00003D13B691A6A7B685A603B6900229A62DD
:1008C0007B681B685A1E7B681A603B69DB6A0122E1
:1008D0009A40384B1B681343364A13603B69DA6A07
:1008E000354913469B0013449B000B4404331B689B
:1008F0003B603B693A689A603B689A683B69DA609A
:100900003B689B683A6904325A603B691A1D3B6830
:100910009A603B69DA6A13469B0013449B00264A9F
:100920001A443B695A613B69DA6A234913469B00C2
:1009300013449B000B441B68591C1F4813469B0023
:1009400013449B00034419603B69DA6A1B4B1B6824
:10095000DB6A9A427FF65DAF0123FB6159E7174BD3
:100960001B68DA6A144913469B0013449B000B442E
:100970001B68012B01D90123FB61114B1B68002B64
:1009800007D00123FB6104E00E4B1B6801330D4AC5
:100990001360FB6918462037BD4680BD2801002042
:1009A00004010020B8000020BC0000201801002035
:1009B00020010020080100202C0000202800002039
:1009C000140100201001002080B485B000AF1C4B42
:1009D0001B68002B03D01B4B01221A602AE0194B25
:1009E00000221A60184B1B687B607B68B3FA83F3A4
:1009F000FB70FB78C3F11F03FB60FA6813469B0092
:100A000013449B00114A1344BB60BB685B685A687F
:100A1000BB685A60BB685A68BB6808339A4204D105
:100A2000BB685B685A68BB685A60BB685B68DB6818
:100A3000074A136000BF1437BD4680BC704700BF33
:100A40002801002014010020080100202C000020B3
:100A50002800002080B582B000AF786000F052F826
:100A6000064B1B68012BF9D9054B4FF080521A60D9
:100A7000BFF34F8FBFF36F8FF0E700BF2C00002054
:100A800004ED00E080B582B000AF00237B600CE095
:100A90007A6813469B0013449B00124A134418467D
:100AA000FFF766FB7B6801337B607B68042BEFD923
:100AB0000D48FFF75DFB0D48FFF75AFB0C48FFF7A9
:100AC00057FB0C48FFF754FB0B48FFF751FB0B4B50
:100AD000054A1A600A4B054A1A6000BF0837BD462E
:100AE00080BD00BF2C00002090000020A40000204A
:100AF000C0000020D4000020EC000020B80000203E
:100B0000BC00002080B582B000AF19E000F05EF9B3
:100B1000104BDB68DB687B607B6804331846FFF7AB
:100B20008AFB0D4B1B68013B0B4A13600B4B1B6888
:100B3000013B0A4A136000F063F9786800F010F88E
:100B4000064B1B68002BE1D100BF00BF0837BD4634
:100B500080BD00BFD400002000010020E80000207C
:100B600080B582B000AF78607B681B6B184600F0E0
:100B700019FA786800F016FA00BF0837BD4680BD44
:100B800080B400AF094B1B681B68002B04D1084BD5
:100B90004FF0FF321A6005E0044B1B68DB681B68EE
:100BA000034A136000BFBD4680BC7047B8000020F8
:100BB0002001002080B586B000AF78603960364BE8
:100BC0001B687B61354B1B6804331846FFF733FB0A
:100BD0000346002B0BD1314B1B68DB6A012202FA62
:100BE00003F3DA432E4B1B6813402D4A13607B68D6
:100BF000B3F1FF3F24D13B68002B21D0294B5B6828
:100C00003B61264B1B683A699A60244B1B683A6922
:100C10009268DA60214B1A683B699B6804325A601B
:100C20001E4B1B681A1D3B699A601C4B1B681D4AB2
:100C30005A611C4B1B6801331A4A136000BF26E03F
:100C40007A697B681344FB60144B1B68FA685A602E
:100C5000FA687B699A4209D2134B1A680F4B1B68DA
:100C6000043319461046FFF7AEFA10E00F4B1A682E
:100C70000A4B1B68043319461046FFF7A4FA0C4BC5
:100C80001B68FA689A4202D2094AFB68136000BFE7
:100C90001837BD4680BD00BF040100202800002099
:100CA00008010020EC000020BC000020B80000205B
:100CB0002001002080B485B000AFF860B9607A6090
:100CC000FB68043BFB60FB684FF080721A60FB68B6
:100CD000043BFB60BB6823F00102FB681A60FB6801
:100CE000043BFB60084AFB681A60FB68143BFB602E
:100CF0007A68FB681A60FB68203BFB60FB6818465B
:100D00001437BD4680BC70470D0D000880B483B019
:100D100000AF00233B604FF0BF0383F31188BFF3A4
:100D20006F8FBFF34F8F7B6000BF00BF3B68002B0E
:100D3000FCD000BF00BF0C37BD4680BC7047000030
:100D4000074B19680868B0E8F00F80F30988BFF313
:100D50006F8F4FF0000080F311884EF00D0E70473A
:100D60002800002000BF00BF06480068006880F32C
:100D7000088862B661B6BFF34F8FBFF36F8F00DF95
:100D800000BF000008ED00E000BF00BF80B500AF6D
:100D90000C4B1B680B4A43F47F031360094B1B6821
:100DA000084A43F07F43136000F090F8064B00229E
:100DB0001A60FFF7D9FFFFF707FEFFF7A7FF002331
:100DC000184680BD20ED00E00400002080B483B010
:100DD00000AF4FF0BF0383F31188BFF36F8FBFF3F2
:100DE0004F8F7B6000BF054B1B680133034A1360C4
:100DF00000BF0C37BD4680BC704700BF0400002018
:100E000080B483B000AF0A4B1B68013B084A1360F3
:100E1000074B1B68002B05D100237B607B6883F3A5
:100E2000118800BF00BF0C37BD4680BC704700BFB3
:100E3000040000200000000000000000000000008E
:100E4000EFF30980BFF36F8F0D4B1A6820E9F00FA5
:100E500010602DE908404FF0BF0080F31188FFF7C4
:100E6000B3FD4FF0000080F31188BDE80840196819
:100E70000868B0E8F00F80F30988BFF36F8F704700
:100E80002800002000BF00BF80B582B000AF4FF047
:100E9000BF0383F31188BFF36F8FBFF34F8F7B6066
:100EA00000BFFFF78BFC0346002B03D0064B4FF02F
:100EB00080521A6000233B603B6883F3118800BFB7
:100EC00000BF0837BD4680BD04ED00E080B400AF30
:100ED000084B00221A60084B00221A60074B46F6A6
:100EE0005F521A60034B07221A6000BFBD4680BCE8
:100EF000704700BF10E000E018E000E014E000E000
:100F000080B584B000AF78600023FB607B6803F09D
:100F10000703002B0ED07B6823F0070308337A68A1
:100F20009A4205D27B6823F0070308337B6001E017
:100F300000237B60FFF748FB174B1B68002B05D194
:100F4000164B23F007031A46134B1A607B68002BDD
:100F50001BD0134B1A687B68134443F677629342A5
:100F600013D80F4B1A687B681A440D4B1B689A42C2
:100F70000BD9094B1A680A4B1B681344FB60084BDA
:100F80001A687B681344064A1360FFF72BFBFB6863
:100F900018461037BD4680BDB03F00203301002009
:100FA000AC3F002080B483B000AF786000BF0C3746
:100FB000BD4680BC7047000080B400AF044B1B6886
:100FC0000133034A136000BFBD4680BC704700BFB9
:100FD000B43F002080B400AF0D4B9B690C4A43F036
:100FE000010393610A4B9B69094A43F0040393612F
:100FF000074B9B69064A43F008039361044B9B69C6
:10100000034A43F01003936100BFBD4680BC7047A4
:101010000010024080B596B000AF4FF40053A7F81F
:101020005430042387F85630012387F8573007F1EE
:1010300054031946644800F02DFD01224FF400517D
:10104000614800F0BDFD4FF48073A7F850300423D1
:1010500087F85230012387F8533007F150031946BF
:101060005A4800F017FD4FF40073A7F854300323DB
:1010700087F8563007F154031946544800F00AFD2A
:101080004FF48043A7F85030042387F852300123EF
:1010900087F8533007F1500319464C4800F0FAFC2A
:1010A0004FF40043A7F85030032387F8523007F17C
:1010B00050031946454800F0EDFC4FF48053A7F863
:1010C0005030042387F85230012387F8533007F15A
:1010D000500319463D4800F0DDFC4FF40053A7F8DB
:1010E0005030032387F8523007F150031946374830
:1010F00000F0D0FC4FF40063A7F85030042387F8C9
:101100005230012387F8533007F150031946304815
:1011100000F0C0FC4FF48053A7F85030032387F849
:10112000523007F150031946294800F0B3FC402320
:10113000BB644FF480637B64264BFB6200237B63BC
:101140000023FB6400233B63234800F0CDFF07F13D
:101150002C031946204800F0B7FE4FF4E133FB6141
:10116000002387F82330002387F82430002387F8F2
:101170002130002387F82030002387F82230042311
:101180003B7607F118031946144801F0E9FC1348AF
:1011900001F018FE01233B8000233B7208237B8073
:1011A0004BF6BB33FB8001233B820D4B7B613B46FF
:1011B00019460C4801F07CF90A4801F095FC00BF83
:1011C0005837BD4680BD00BF00100140000C0140F3
:1011D00000080140A0860100005400400038014092
:1011E000B90F00080004004080B582B002AFFFF7DD
:1011F000F1FEFFF70FFF124B1B68019302230093D0
:10120000002380220F491048FFF73EF80F4B1B6860
:10121000019303230093002380220D490D48FFF71B
:1012200033F80D4B1B6801930423009300238022A5
:101230000A490B48FFF728F8FFF78AF9FEE700BFD5
:10124000EC3F0020982F000865120008F03F0020B6
:10125000A82F000881120008F43F0020B42F0008D6
:101260002915000880B582B000AF786000220249DD
:10127000024801F05BFDF9E708000020003801405A
:1012800080B582B000AF786000224FF48071994839
:1012900000F096FC0120FFF737F901224FF480712E
:1012A000944800F08DFC0120FFF72EF900224FF446
:1012B0008071904800F084FC00BF4FF400718D48AD
:1012C00000F067FC0346002BF7D08B4801F0E2FBEF
:1012D00000BF4FF40071874800F05BFC0346002B11
:1012E000F7D1854B5B6A854A1360834801F0E7FBC1
:1012F000814801F0F9FB814B1B68814AA2FB032363
:101300005B09804A1360804B1B68012B03D17D4B26
:101310004FF496621A607C4B00221A600520FFF79A
:10132000F3F800224FF48041724800F049FC01209C
:10133000FFF7EAF801224FF480416E4800F040FCCC
:101340000120FFF7E1F800224FF48041694800F0E6
:1013500037FC00BF4FF40041664800F01AFC03461A
:10136000002BF7D0644801F095FB00BF4FF400411B
:10137000604800F00EFC0346002BF7D15E4B5B6A21
:10138000624A13605C4801F09AFB5B4801F0ACFBD9
:101390005E4B1B685A4AA2FB03235B095C4A13603D
:1013A000594B1B68012B03D1594B4FF496621A60BD
:1013B000554B00221A600520FFF7A6F800224FF4D3
:1013C00080514C4800F0FCFB0120FFF79DF8012202
:1013D0004FF48051474800F0F3FB0120FFF794F8E9
:1013E00000224FF48051434800F0EAFB00BF4FF465
:1013F0000051404800F0CDFB0346002BF7D03E489B
:1014000001F048FB00BF4FF400513A4800F0C1FB27
:101410000346002BF7D1384B5B6A3E4A13603648CF
:1014200001F04DFB344801F05FFB3A4B1B68344A36
:10143000A2FB03235B09384A1360334B1B68012B63
:1014400003D1354B4FF496621A602F4B00221A607D
:101450000520FFF759F800224FF400612F4800F0F3
:10146000AFFB0120FFF750F801224FF400612B4839
:1014700000F0A6FB0120FFF747F800224FF40061BF
:10148000264800F09DFB00BF4FF48051234800F038
:1014900080FB0346002BF7D0174801F0FBFA00BF92
:1014A0004FF480511D4800F074FB0346002BF7D128
:1014B000114B5B6A1A4A13600F4801F000FB0E489B
:1014C00001F012FB164B1B680D4AA2FB03235B09BC
:1014D000144A13600C4B1B68012B03D1114B4FF4C2
:1014E00096621A60084B00221A600520FFF70CF87C
:1014F000CAE600BF000C014000040040C83F0020C5
:1015000009CB3D8DB83F0020B43F0020CC3F0020E8
:10151000BC3F0020D03F0020C03F00200008014019
:10152000D43F0020C43F002080B584B002AF786073
:10153000484B1B681B0EDAB2474B1A70454B1B68B1
:101540001B0CDAB2444B5A70424B1B681B0ADAB2CE
:10155000414B9A703F4B1B68DAB23F4BDA703F4BFE
:101560001B681B0EDAB23C4B1A713C4B1B681B0C00
:10157000DAB2394B5A71394B1B681B0ADAB2364B57
:101580009A71364B1B68DAB2334BDA71344B1B68F5
:101590001B0EDAB2304B1A72314B1B681B0CDAB2DD
:1015A0002D4B5A722E4B1B681B0ADAB22A4B9A72C9
:1015B0002B4B1B68DAB2284BDA722A4B1B681B0EC6
:1015C000DAB2254B1A73274B1B681B0CDAB2224B7D
:1015D0005A73244B1B681B0ADAB21F4B9A73214BB8
:1015E0001B68DAB21C4BDA731F4B1B78422B03D1FA
:1015F0001E4B01221A7006E01B4B1B78412B02D1B7
:101600001A4B00221A70194B1A78134B1A740023C4
:1016100001930023009311230F4A1021144800F076
:10162000ADFD0C4B1B68142B03D90C4B1B68142B02
:1016300006D800224FF400510E4800F0C1FA05E030
:1016400001224FF400510B4800F0BAFA1E20FEF7B9
:101650005BFF6DE7B83F0020D83F0020BC3F002073
:10166000C03F0020C43F00200800002009000020E7
:1016700000540040001001400D488546AFF3008043
:101680000C480D490D4A002302E0D458C4500433DD
:10169000C4188C42F9D30A4A0A4C002301E01360B3
:1016A0000432A242FBD301F043FCFFF79DFDFEE7AD
:1016B00000500020000000200C000020D82F00085F
:1016C0000C00002074410020FEE7000080B500AF50
:1016D000084BDB6C9AB2084B1A80084B1B88013B05
:1016E000074ADB0013449B68034A12881046984758
:1016F00000BF80BD00240140544000200A000020AB
:10170000F83F002080B500AF054B5B69044A43F009
:1017100001035361034B1B68984700BF80BD00BFA6
:10172000000401405840002080B500AF054B5B69C4
:10173000044A43F002035361034B5B68984700BFC0
:1017400080BD00BF000401405840002080B500AFBC
:10175000054B5B69044A43F004035361034B9B68E8
:10176000984700BF80BD00BF0004014058400020E2
:1017700080B500AF054B5B69044A43F00803536131
:10178000034BDB68984700BF80BD00BF00040140E9
:101790005840002080B500AF054B5B69044A43F018
:1017A00010035361034B1B69984700BF80BD00BF06
:1017B000000401405840002080B500AF264B5B6913
:1017C00003F02003002B08D0234B5B69224A43F02F
:1017D00020035361214B5B6998471F4B5B6903F002
:1017E0004003002B08D01C4B5B691B4A43F04003AD
:1017F00053611A4B9B699847174B5B6903F0800351
:10180000002B08D0144B5B69134A43F080035361EB
:10181000124BDB699847104B5B6903F48073002B14
:1018200008D00D4B5B690C4A43F4807353610B4B3A
:101830001B6A9847084B5B6903F40073002B08D0C0
:10184000054B5B69044A43F400735361034B5B6AC5
:10185000984700BF80BD00BF0004014058400020F1
:1018600080B500AF2D4B5B6903F48063002B08D07B
:101870002A4B5B69294A43F480635361284B9B6A76
:101880009847264B5B6903F40063002B08D0234B79
:101890005B69224A43F400635361214BDB6A98473A
:1018A0001E4B5B6903F48053002B08D01B4B5B6914
:1018B0001A4A43F480535361194B1B6B9847174BDB
:1018C0005B6903F40053002B08D0144B5B69134A87
:1018D00043F400535361124B5B6B98470F4B5B69AA
:1018E00003F48043002B08D00C4B5B690B4A43F494
:1018F000804353610A4B9B6B9847084B5B6903F429
:101900008043002B08D0054B5B69044A43F4004335
:101910005361034BDB6B984700BF80BD000401405F
:101920005840002080B483B000AF0346FB80FB88A2
:10193000B3F5004F00F0A580B3F5004F00F3A3808E
:10194000B3F5804F00F09B80B3F5804F00F39B8090
:10195000B3F5005F00F09180B3F5005F00F3938072
:10196000B3F5805F00F08780B3F5805F00F38B8074
:10197000B3F5006F7DD0B3F5006F00F38480B3F54D
:10198000806F74D0B3F5806F7DDCB3F5007F6CD0D1
:10199000B3F5007F77DCB3F5807F64D0B3F5807F4B
:1019A00071DC802B5DD0802B6DDC202B48DC002B84
:1019B00069DD013B1F2B66D801A252F823F000BF5E
:1019C000471A00084B1A0008871A00084F1A000827
:1019D000871A0008871A0008871A0008531A000897
:1019E000871A0008871A0008871A0008871A000853
:1019F000871A0008871A0008871A0008571A000873
:101A0000871A0008871A0008871A0008871A000832
:101A1000871A0008871A0008871A0008871A000822
:101A2000871A0008871A0008871A0008871A000812
:101A3000871A0008871A0008871A00085B1A00082E
:101A4000402B0CD01FE000231EE004231CE00823E1
:101A50001AE00C2318E0102316E0142314E01823D6
:101A600012E01C2310E000230EE004230CE0082306
:101A70000AE00C2308E0102306E0142304E01823F6
:101A800002E01C2300E0002318460C37BD4680BC52
:101A9000704700BF90B585B000AF78603960002313
:101AA000BB600023FB733B681B88FF2B01D87B685E
:101AB00001E07B680433BB603B681B881846FFF776
:101AC00031FF03461A460F239340DA43BB681B6875
:101AD0001A40BB681A603B689B78072B0BD03B68A9
:101AE0009B78062B07D03B689B78052B03D03B687F
:101AF0009B78042B0ED13B689B78043B9B005AB229
:101B00003B68DB785BB213435BB2DBB203F00F03DD
:101B1000FB732CE03B689B78012B03D03B689B78E0
:101B2000002B07D13B689B789B00DBB203F00F03CF
:101B3000FB731CE03B689B78082B02D10423FB73EA
:101B400015E00823FB733B689B78022B07D17B6869
:101B5000DB683A6812881A437B68DA6007E07B68C2
:101B6000DB683A681288D2431A407B68DA60FC7BF3
:101B70003B681B881846FFF7D5FE034604FA03F2BC
:101B8000BB681B681A43BB681A6000BF1437BD46A8
:101B900090BD80B485B000AF78600B467B807B68D9
:101BA0009A687B881340002B02D00123FB7301E06D
:101BB0000023FB73FB7B18461437BD4680BC70477F
:101BC00080B483B000AF78600B467B8013467B7097
:101BD0007B78002B03D07A887B681A6102E07A88D0
:101BE0007B685A6100BF0C37BD4680BC704700005F
:101BF00080B489B000AF786039600023BB610023F6
:101C00007B6100233B610023FB773B68062B13D8E5
:101C10003B68062B7ED801A252F823F0431C000833
:101C20005B1C0008731C0008FD1C0008C11C000898
:101C3000C11C0008D91C00083B68394A934224D0D3
:101C400068E07B689B6903F00203002B02D001234C
:101C5000FB775FE00023FB775CE07B685B6903F068
:101C60000103002B02D00123FB7753E00023FB7715
:101C700050E07B685B6903F00203002B02D0012374
:101C8000FB7747E00023FB7744E07B685B69BB613F
:101C90007B689B697B617B691B047B617A69BB699B
:101CA000134323F07F433B613A691D4B13401C4AA9
:101CB000934202D10123FB772CE00023FB7729E03C
:101CC0007B685B6903F08003002B02D00123FB7764
:101CD00020E00023FB771DE07B685B6903F0800355
:101CE000002B08D07B685B6903F00403002B02D053
:101CF0000123FB770EE00023FB770BE07B685B6939
:101D000003F04003002B02D00123FB7701E0002306
:101D1000FB7700BFFB7F18462437BD4680BC704769
:101D20008000070080B582B000AF78600B46FB7082
:101D30001346BB70BB78012B07D000BF0021786829
:101D4000FFF756FF0346002BF8D1FB78012B06D195
:101D50007B681B6843F480727B681A6005E07B68CF
:101D60001B6823F480727B681A6000BF0837BD4689
:101D700080BD80B483B000AF78600B46FB70FB7809
:101D8000012B06D17B681B6843F400727B681A60E4
:101D900005E07B681B6823F400727B681A6000BF53
:101DA0000C37BD4680BC704780B483B000AF78600C
:101DB0000B467B8013467B707B885B007B807B7847
:101DC000002B04D17B8823F001037B8003E07B8818
:101DD00043F001037B807A887B681A6100BF0C376F
:101DE000BD4680BC7047000080B584B000AF78600D
:101DF0000B46FB707B68324A934214BF01230023D9
:101E0000DBB2FB73FB78042B56D801A252F823F007
:101E10002B1E0008251E00084F1E0008671E000824
:101E20008B1E00087B689B6946E07B689B6903F01A
:101E30000403002B3BD0FA7B22491346DB001344FA
:101E40009B000B4420331B68002098472FE0FA7B4F
:101E50001C491346DB0013449B000B4420331B68D2
:101E60000220984728E07B689B6903F00403002B5D
:101E70001FD0FA7B13491346DB0013449B000B442D
:101E800020331B680320984713E07B689B6903F0AD
:101E90000403002B0FD1FA7B0A491346DB001344DD
:101EA0009B000B4420331B680420984703E000BFCD
:101EB00002E000BF00E000BF00BF1037BD4680BD9C
:101EC0000054004094400020B0B586B000AF786068
:101ED00039600023FB820023BB827A4B3B610023E5
:101EE000FB817B68784A934210D1784A3B6814465C
:101EF0001D460FCD0FC40FCD0FC42B682360744B4C
:101F0000DB69734A43F40013D36110E06F4B3A6806
:101F100003F1240415460FCD0FC40FCD0FC42B6859
:101F200023606B4BDB696A4A43F48003D3613B68EF
:101F30009B68002B7FD17B685B68FB82FB8A23F068
:101F40003F03FB8200F030FA38613B69614AA2FB33
:101F500003239B0CBB82FA8ABB8A1343FB82FA8A57
:101F60007B685A607B681B6823F001027B681A60FB
:101F70000023FB823B681B684CF25032934204D032
:101F80003B681B68544A934212D13B681B685B0054
:101F90003A69B2FBF3F3FB81FA8AFB891343FB82B4
:101FA000FA8A7B68DA61BB8A01331A467B681A6257
:101FB0007B681B68FB823B689B699AB23B685B68E5
:101FC0009BB213439AB23B68DB699BB213439AB24C
:101FD0003B689B689BB213439AB2FB8A1343FB8214
:101FE000FA8A7B681A600023FB823B689B89012B7D
:101FF0000DD10123FB823B681B8A5B001AB2B7F943
:10200000163013431BB2FB82FA8A7B68DA60002326
:10201000FB823B68DB895B001AB2B7F916301343C9
:102020001BB2FB823B685B699AB2FB8A1343FB825B
:10203000FA8A7B689A603B681B6A002B38D07B6801
:102040005B6843F480627B685A607B685B6843F43A
:1020500080727B685A607B685B6843F400727B68BF
:102060005A607B68184A93420CD11C4B1B681B4A70
:1020700043F0004313601A4B1B68194A43F00103F5
:1020800013600FE07B68174A93420BD1144B1B6817
:10209000134A43F002031360114B1B68104A43F0CC
:1020A000040313607B6800225A617B6800229A61F6
:1020B0007B681B6843F001027B681A6000BF183719
:1020C000BD46B0BD00127A0000540040944000208C
:1020D0000010024083DE1B43A086010000E100E007
:1020E00004E100E00058004080B584B000AF7860A3
:1020F0007B681F4A934218D14023BB810723BB73DF
:102100000323FB7307F10C0319461A48FFF7C2FCBF
:102110008023BB810723BB730323FB7307F10C03ED
:1021200019461448FFF7B6FC1DE07B68124A93423B
:1021300019D14FF48063BB810723BB730123FB7369
:1021400007F10C0319460B48FFF7A4FC4FF400639A
:10215000BB810723BB730123FB7307F10C031946F3
:102160000448FFF797FC00BF1037BD4680BD00BF95
:1021700000540040000C01400058004080B586B07B
:1021800000AFF8607A603B600B467B8100237B6187
:1021900097F824301A460121F868FFF7C3FD00BF05
:1021A0000121F868FFF724FD0346002BF8D07B8956
:1021B00000221946F868FFF7F7FD00BF0221F86812
:1021C000FFF716FD0346002BF8D000BF1949F86849
:1021D000FFF70EFD0346002BF8D000237B6111E0D2
:1021E0007B697A6813441B781A46FB681A6100BF42
:1021F0000421F868FFF7FCFC0346002BF8D07B694C
:1022000001337B617B693A689A42E9D800BF0621B5
:10221000F868FFF7EDFC0346002BF8D097F8203064
:10222000002B03D10121F868FFF7A3FD00BF183789
:10223000BD4680BD8000070080B586B000AF00239A
:102240007B60354B7B617B695B6803F400733B61AA
:102250007B695B6803F48063FB607B695B6903F007
:102260001003BB603B69002B0CD0BB68002B09D06E
:102270007B695B697B607B6900221A600021786959
:10228000FFF7B2FD7B695B6903F00203BB603B694A
:10229000002B12D0BB68002B0FD07B699B6903F029
:1022A0000103002B09D17B695B697B607B699B69BA
:1022B0007B6002217869FFF797FD7B695B6903F01A
:1022C0008003BB603B69002B0CD0BB68002B09D09E
:1022D0007B699B6903F00103002B03D1032178691B
:1022E000FFF782FD7B695B6903F04003BB603B69DC
:1022F000002B0CD0BB68002B09D07B699B6903F0D5
:102300000103002B03D104217869FFF76DFD00BFA5
:102310001837BD4680BD00BF0054004080B400AFF8
:1023200000BFBD4680BC704780B400AF00BFBD4653
:1023300080BC704780B400AF00BFBD4680BC704712
:1023400080B400AF0B4B5B689B0803F00303022BC8
:102350000AD0022B0AD8002B02D0012B02D005E0B4
:10236000054B03E0054B01E0044BFFE71846BD4673
:1023700080BC70470010024000127A000024F40074
:1023800080B500AFFFF7DCFF0246054B5B681B0919
:1023900003F00F030349CB5C22FA03F3184680BD18
:1023A00000100240C02F000880B500AFFFF7E8FF23
:1023B0000246054B5B681B0A03F007030349CB5C2D
:1023C00022FA03F3184680BD00100240B82F00081F
:1023D00080B500AFFFF7D4FF0246054B5B68DB0A10
:1023E00003F007030349CB5C22FA03F3184680BDD0
:1023F00000100240B82F000880B582B000AF134B28
:102400009B685B0803F00103DAB23B7962F30003D7
:102410003B710E4B9B6803F00103DAB23B7962F328
:1024200041033B71094B9B681B0903F00103DAB2BE
:102430003B7962F382033B71054B1B685B6938791A
:10244000984700BF0837BD4680BD00BF003001403F
:10245000DC40002080B582B000AF134B9B685B0866
:1024600003F00103DAB23B7962F300033B710E4BD8
:102470009B6803F00103DAB23B7962F341033B71DD
:10248000094B9B681B0903F00103DAB23B7962F345
:1024900082033B71054B5B685B693879984700BFE5
:1024A0000837BD4680BD00BF00300140DC40002041
:1024B000B0B483B000AF786039607B68B3F1804F0F
:1024C00016D1914BDB69904A43F00103D3618F4AE7
:1024D0003B6814461D460FCD0FC495E8030084E801
:1024E00003008B4B1B688A4A43F08053136039E02A
:1024F0007B68884A934217D1834BDB69824A43F059
:102500000203D361814B3A6803F1180415460FCDDD
:102510000FC495E8030084E803007D4B1B687C4AE8
:1025200043F0005313601DE07B687B4A934217D150
:10253000754BDB69744A43F00403D361734B3A680B
:1025400003F1300415460FCD0FC495E8030084E86D
:1025500003006F4B1B686E4A43F08043136001E039
:10256000012391E23B681B88012B02D0022B34D05F
:1025700031E27B681B6823F080027B681A603B684D
:102580001B7A002B0CD17B681B6843F004027B682C
:102590001A607B681B6823F010027B681A6022E2D5
:1025A0003B681B7A012B0CD17B681B6843F004024B
:1025B0007B681A607B681B6843F010027B681A60B6
:1025C00011E23B681B7A022B40F00D827B681B688E
:1025D00043F004027B681A6005E27B681B6843F0E5
:1025E00080027B681A607B685B6943F001027B684C
:1025F0005A613B689B7A012B75D17B689A697B682D
:102600009A613B68DB7A002B04D17B689A697B680E
:102610009A614EE03B68DB7A012B23D17B681B6813
:1026200023F004027B681A607B681B6823F01002A9
:102630007B681A603B689B7B012B06D17B689B699A
:1026400043F070027B689A6105E07B689B6943F008
:1026500060027B689A617B681B6A23F002027B68D8
:102660001A6226E03B68DB7A022B22D17B681B686A
:1026700023F004027B681A607B681B6843F0100239
:102680007B681A603B689B7B012B06D17B689B694A
:1026900043F060027B689A6105E07B689B6943F0C8
:1026A00070027B689A617B681B6A23F002027B6878
:1026B0001A623B689A893B68DB889A4211D83B686A
:1026C0009B891A467B685A637B689B6943F00802C2
:1026D0007B689A617B681B6A43F001027B681A621F
:1026E00083E10523D0E13B689B7A022B7FD17B6895
:1026F0009A697B689A613B68DB7A002B0ED17B6814
:102700009A697B689A6158E000100240E44000201A
:1027100000E100E000040040000800403B68DB7A74
:10272000012B23D17B681B6823F004027B681A60AD
:102730007B681B6823F010027B681A603B689B7BF8
:10274000012B06D17B689B6943F4E0427B689A6168
:1027500005E07B689B6943F4C0427B689A617B68B3
:102760001B6A23F020027B681A6226E03B68DB7A52
:10277000022B22D17B681B6823F004027B681A605D
:102780007B681B6843F010027B681A603B689B7B88
:10279000012B06D17B689B6943F4C0427B689A6138
:1027A00005E07B689B6943F4E0427B689A617B6843
:1027B0001B6A23F020027B681A623B689A893B6897
:1027C000DB889A4211D83B689B891A467B689A63DA
:1027D0007B689B6943F400627B689A617B681B6A33
:1027E00043F010027B681A62FFE005234CE13B686E
:1027F0009B7A032B75D17B68DA697B68DA613B6869
:10280000DB7A002B04D17B68DA697B68DA614EE001
:102810003B68DB7A012B23D17B681B6823F0040221
:102820007B681A607B681B6823F010027B681A6063
:102830003B689B7B012B06D17B68DB6943F0700210
:102840007B68DA6105E07B68DB6943F060027B68E6
:10285000DA617B681B6A23F400727B681A6226E0E7
:102860003B68DB7A022B22D17B681B6823F00402D1
:102870007B681A607B681B6843F010027B681A60F3
:102880003B689B7B012B06D17B68DB6943F06002D0
:102890007B68DA6105E07B68DB6943F070027B6886
:1028A000DA617B681B6A23F400727B681A623B68FA
:1028B0009A893B68DB889A4211D83B689B891A4603
:1028C0007B68DA637B68DB6943F008027B68DA6166
:1028D0007B681B6A43F480727B681A6285E005237B
:1028E000D2E03B689B7A042B7FD17B68DA697B68F6
:1028F000DA613B68DB7A002B04D17B68DA697B689C
:10290000DA614EE03B68DB7A012B23D17B681B68E0
:1029100023F004027B681A607B681B6823F01002B6
:102920007B681A603B689B7B012B06D17B68DB6967
:1029300043F4E0427B68DA6105E07B68DB6943F4DD
:10294000C0427B68DA617B681B6A23F400527B68B3
:102950001A6226E03B68DB7A022B22D17B681B6877
:1029600023F004027B681A607B681B6843F0100246
:102970007B681A603B689B7B012B06D17B68DB6917
:1029800043F4C0427B68DA6105E07B68DB6943F4AD
:10299000E0427B68DA617B681B6A23F400527B6843
:1029A0001A623B689A893B68DB889A4211D83B6877
:1029B0009B891A467B681A647B68DB6943F4006272
:1029C0007B68DA617B681B6A43F480527B681A6219
:1029D0000BE0052358E07B681B6823F004027B684A
:1029E0001A60022350E000BF00E000BF7B681B6854
:1029F00023F002027B681A603B685B88013B9BB254
:102A00001A467B689A623B68DB884FF6FF729342F6
:102A100009D03B68DB881A467B68DA623B681B8A10
:102A2000002B0FD101E003232EE07B68DB6823F04D
:102A300001027B68DA607B681B6843F002027B68F6
:102A40001A6020E03B681B8A012B0CD17B68DB6895
:102A500043F001027B68DA607B681B6823F00202A6
:102A60007B681A600FE03B681B8A022B0BD17B68E6
:102A7000DB6843F001027B68DA607B681B6823F047
:102A800002027B681A60002318460C37BD46B0BCB2
:102A9000704700BF80B483B000AF78607B68002BC4
:102AA00007D07B681B6843F001027B681A60002333
:102AB00000E0012318460C37BD4680BC704780B447
:102AC00083B000AF78607B68002B07D07B681B6801
:102AD00023F001027B681A60002300E001231846FE
:102AE0000C37BD4680BC704780B483B000AF7860BF
:102AF0007B68002B04D07B6800225A62002300E030
:102B0000012318460C37BD4680BC704780B500AF26
:102B10004FF0804300221A61024B5B69984700BF67
:102B200080BD00BFE440002080B500AF034B002211
:102B30001A61034BDB6A984700BF80BD0004004068
:102B4000E440002080B500AF034B00221A61034B24
:102B50005B6C984700BF80BD00080040E440002047
:102B6000B0B584B000AF786039607B68684A934242
:102B700008D1684A3B6814461D460FCD0FC42B6828
:102B800023601AE07B68644A934209D1614B3A683A
:102B900003F1140415460FCD0FC42B6823600CE01D
:102BA0007B685E4A934208D15A4B3A6803F1280485
:102BB00015460FCD0FC42B6823607B68544A93429F
:102BC00006D1574B9B69564A43F48043936114E006
:102BD0007B68514A934206D1514BDB69504A43F41A
:102BE0000033D36109E07B684C4A934205D14C4BDA
:102BF000DB694B4A43F48023D3617B68DB6843F491
:102C000000527B68DA607B68DB683A6812781A43A6
:102C10007B68DA607B68DB683A68127A1A437B6803
:102C2000DA607B68DB683A68527A1A437B68DA605C
:102C30007B68DB683A68927A1A437B68DA607B6863
:102C4000DB683A68D27A1A437B68DA607B68304A7C
:102C5000934203D1FFF7BCFBF86002E0FFF7A4FB4F
:102C6000F8603B685B681B01FA68B2FBF3F319017B
:102C7000FA6813469B0013449A001A443B685B6849
:102C80009B00B2FBF3F23B685B681B01F868B0FB8A
:102C9000F3F3642000FB03F3D31A1B01214AA2FBC8
:102CA00003235B0903F00F030B43BB607B68BA6827
:102CB0009A603B681B7B002B26D07B68DB683A68F8
:102CC000127B1A437B68DA607B68114A934206D113
:102CD000154B1B68144A43F02003136014E07B6813
:102CE0000D4A934206D1104B1B680F4A43F0400334
:102CF000136009E07B68094A934205D10A4B1B68BF
:102D0000094A43F08003136000BF1037BD46B0BDD1
:102D1000003801402C4100200044004000480040A1
:102D2000001002401F85EB5104E100E080B487B041
:102D300000AFF860B9601346FB7100237B61FB793B
:102D4000002B06D100BFFB681B6803F02003002B9B
:102D5000F9D0FB68154A934202D1154B7B610CE018
:102D6000FB68144A934202D1134B7B6105E0FB6878
:102D7000124A934201D1124B7B617B695B7A002B33
:102D800007D1FB685B689BB2DBB29AB2BB681A8062
:102D900007E0FB685B689BB203F07F039AB2BB68F5
:102DA0001A8000BF1C37BD4680BC70470038014008
:102DB0002C410020004400404041002000480040D9
:102DC0005441002080B584B000AF78607B682B4A06
:102DD000934218D14FF40073BB810623BB730123C8
:102DE000FB7307F10C0319462548FEF753FE4FF419
:102DF0008063BB810823BB7307F10C03194620488D
:102E0000FEF748FE36E07B681E4A934216D1042343
:102E1000BB810623BB730123FB7307F10C03194627
:102E20001748FEF737FE0823BB810823BB7307F161
:102E30000C0319461248FEF72DFE1BE07B68124A70
:102E4000934217D14FF48063BB810623BB730123E8
:102E5000FB7307F10C0319460C48FEF71BFE4FF4F9
:102E60000063BB810123BB7307F10C0319460748BC
:102E7000FEF710FE00BF1037BD4680BD0038014090
:102E8000000801400044004000480040000C0140A0
:102E900080B500AF054B1B6803F02003002B02D068
:102EA000034B1B69984700BF80BD00BF003801403D
:102EB0002C41002080B500AF054B1B6803F02003B8
:102EC000002B02D0034B5B6A984700BF80BD00BF58
:102ED000004400402C41002080B500AF054B1B682A
:102EE00003F02003002B02D0034B9B6B984700BFDD
:102EF00080BD00BF004800402C41002080B500AFDD
:102F0000054B9B68044A23F001039360034B9B68C5
:102F1000984700BF80BD00BF002C004068410020E2
:102F200003460244934200D1704703F8011BF9E7BE
:102F300070B500260C4D0D4C641BA410A64209D19F
:102F400000F01AF800260A4D0A4C641BA410A64291
:102F500005D170BD55F8043B98470136EEE755F8AA
:102F6000043B98470136F2E7D02F0008D02F000825
:102F7000D02F0008D42F0008F8B500BFF8BC08BC5B
:102F80009E467047F8B500BFF8BC08BC9E46704727
:102F900049444C4500000000447269766572205334
:102FA0007461746500000000556C7472536F6E6933
:102FB00063000000493243000000000001020304E6
:102FC00000000000000000000102030406070809D9
:042FD000550100089F
:042FD40031010008BF
:0C2FD80004000000AAAAAAAA41010100FE
:040000050800167960
:00000001FF
